:100000000C9446000C9466000C9466000C946600F8
:100010000C9466000C9466000C9466000C946600C8
:100020000C9466000C9466000C9466000C946600B8
:100030000C9466000C9402010C9466000C9466000B
:100040000C9466000C9466000C9466000C94660098
:100050000C9466000C9466000C9466000C94660088
:100060000C9466000C9466000C9466000C94660078
:100070000C9466000C9466000C9466000C94660068
:100080000C9466000C9466000C94660011241FBE4C
:10009000CFEFD0E4DEBFCDBF11E0A0E0B1E0E8ECEF
:1000A000F6E000E00BBF02C007900D92AA35B10741
:1000B000D9F71BBE11E0AAE5B1E001C01D92A73738
:1000C000B107E1F70E9443030C9462030C94000013
:1000D000AC011816190654F0089500000197E9F7CD
:1000E0002F5F3F4F2417350729F4089520E030E0B3
:1000F00067E073E0CB01F1CF5E9A88B95F9A0000A8
:100100005F9881E090E00E94680008955E9888B949
:100110005F9A00005F9882E090E00E946800089576
:10012000813120F481580E948600089581550E94F3
:100130008600089581E00E9486000895FF920F9343
:100140001F93CF93DF93F82EEB010E949A008881D2
:10015000882391F08E010F5F1F4F8F2D01C08F2DCF
:10016000F82EF3940E94900089910E947C00F8017F
:1001700081918F01882399F7DF91CF911F910F9182
:10018000FF90089584E690E00E94680088E30E9452
:10019000860086E00E9486008FE00E94860081E053
:1001A0000E9486008AE090E00E94680008958BE03B
:1001B000809381008DE790E0909389008093880080
:1001C00082E080936F0010928500109284008091ED
:1001D000560190915701A0915801B0915901809317
:1001E0005A0190935B01A0935C01B0935D018FB7BE
:1001F00080688FBF089510928100089581E08093F8
:100200005E0108951F920F920FB60F920BB60F92D8
:1002100011242F933F934F935F936F937F938F930B
:100220009F93AF93BF93EF93FF9380915A01909167
:100230005B01A0915C01B0915D010197A109B10939
:1002400080935A0190935B01A0935C01B0935D0190
:100250000097A105B10591F40E94FE00809156011E
:1002600090915701A0915801B091590180935A0182
:1002700090935B01A0935C01B0935D01FF91EF91BE
:10028000BF91AF919F918F917F916F915F914F91AE
:100290003F912F910F900BBE0F900FBE0F901F90AC
:1002A0001895DC01CB018093560190935701A093E0
:1002B0005801B093590180935A0190935B01A09328
:1002C0005C01B0935D0108956091540170915501F6
:1002D000AB015695542F44275795479546275727E6
:1002E0009A0136952795329522952F7023273F70D6
:1002F000232724273527C901880F991F880F991FA5
:10030000880F991F8227932790935501809354015A
:1003100008950F931F93CF93DF9380915F018630F1
:1003200009F47FC1873090F4823009F489C08330AA
:1003300030F4882339F1813009F0A0C14AC08430FB
:1003400009F45AC1853008F067C1A8C0893099F016
:100350008A3038F4873009F469C1883009F08EC1D9
:100360006AC18B3009F43FC18B3008F48EC08C30E9
:1003700009F084C165C181E060E071E00E949E00E7
:1003800010925F018FE085B910927601109275018D
:100390001092600181E08093730110927401C1E6B4
:1003A000D1E08E01005F1F4F809154019091550163
:1003B0000E9464018370907089939993C017D1074C
:1003C00099F780B18F3F09F459C181E080935F01B3
:1003D00055C1E0917401F0E0EE0FFF1FEF59FE4FA1
:1003E00080819181009719F481E085B911C0813035
:1003F000910519F482E085B90BC08230910519F49A
:1004000084E085B905C08330910511F488E085B991
:1004100080917501909176018431910539F482E0E3
:1004200080935F01109276011092750180917501A1
:1004300090917601019690937601809375011EC18B
:1004400015B8809175019091760184319105B9F4C8
:100450001092760110927501809174018F5F8093E4
:10046000740190917301891720F481E080935F01FA
:1004700005C18AE080935F0110927401FFC001966C
:100480009093760180937501F9C081E062E271E09A
:100490000E949E0083E080935F01F0C08091740110
:1004A00090917301891701F58330B0F48F5F8093C9
:1004B000730181E068E271E00E949E0088E00E9482
:1004C000900080917301805D0E947C001092740105
:1004D00081E080935F0108C081E060E371E00E94E9
:1004E0009E008CE080935F0100991DC0E091740133
:1004F000F0E0EE0FFF1FEF59FE4F808191810097D2
:1005000071F481E069E371E00E949E0080917401C2
:100510008F5F8093740185E080935F01AFC08BE0B3
:1005200080935F01ABC001991EC0E0917401F0E0BF
:10053000EE0FFF1FEF59FE4F8081918181309105B1
:1005400071F481E06BE371E00E949E008091740180
:100550008F5F8093740186E080935F018FC08BE092
:1005600080935F018BC002991EC0E0917401F0E09E
:10057000EE0FFF1FEF59FE4F808191818230910570
:1005800071F481E06DE371E00E949E00809174013E
:100590008F5F8093740187E080935F016FC08BE071
:1005A00080935F016BC0039969C0E0917401F0E032
:1005B000EE0FFF1FEF59FE4F80819181833091052F
:1005C00071F481E06FE371E00E949E0080917401FC
:1005D0008F5F8093740188E080935F014FC08BE050
:1005E00080935F014BC081E061E471E00E949E0056
:1005F00084E080935F0142C0809175019091760103
:100600000196909376018093750188329105B1F53A
:1006100089E080935F0132C080B18AE080935F01FE
:100620002DC080B18AE080935F0128C080B18AE04C
:1006300080935F0123C080B18AE080935F011EC078
:100640008091750190917601009729F481E06BE427
:1006500071E00E949E008091750190917601019653
:1006600090937601809375018A30910539F489E081
:1006700080935F011092760110927501DF91CF9106
:100680001F910F9108958FEF87B918B88AB91BB8D9
:1006900011B882B984B915B80E94C20062E370E053
:1006A00080E090E00E9451010E94D70089E0809391
:1006B0005F0180915E018823E1F310925E010E9448
:0806C0008901F7CFF894FFCF88
:1006C80057656C636F6D652E20507265737320617A
:1006D80020627574746F6E20746F20626567696E2E
:1006E8002E00496E707574004C6576656C3A200072
:1006F800596F752077696E2100310032003300345C
:1007080000596F75206C6F73652E00596F752077CF
:0A071800696E2E003A000100000097
:0400000300000312E4
:00000001FF
